:020000040800F2
:100000000000011029ED030843C80308CDE70108EB
:10001000E5ED0308E5ED0308E5ED03080000000049
:1000200000000000000000000000000041C80308BC
:100030003FC80308000000003DC803083718000847
:10004000E5ED0308E5ED0308E5ED0308E5ED03083C
:10005000E5ED0308E5ED0308891D0008991D00087A
:10006000E5ED0308951D0008911D0008FD0D02082F
:10007000ED0D0208DD0D0208CD0D0208B90D0208D4
:10008000A50D0208910D0208E5ED0308E5ED030852
:10009000E5ED0308E5ED0308E5ED03088D1D000817
:1000A000390F0208110F0208E90E0208610F020859
:1000B000D50E0208C10E0208AD0E0208E5ED0308D8
:1000C000E5ED0308E5ED0308E5ED0308E5ED0308BC
:1000D000E5ED0308BD170208E5ED0308B1170208B6
:1000E000851D0008E5ED030859DC03085D0E0208D4
:1000F000350E02080D0E0208850E02087D0D02085D
:10010000E5ED0308E5ED0308990E0208E5ED0308A7
:10011000E5ED0308E5ED0308E5ED0308E5ED03086B
:10012000690D0208550D0208410D02082D0D020847
:10013000190D0208E5ED0308E5ED0308E5ED0308F8
:10014000E5ED0308E5ED0308E5ED030865C20308E6
:10015000050D0208F10C0208DD0C0208A7170208C1
:10016000E5ED0308E5ED0308E5ED0308E5ED03081B
:10017000E5ED0308E5ED0308E5ED0308E5ED03080B
:08018000E5ED0308E5ED0308BD
:100188000E4B03F1140130B50A46044653F8045BDC
:1001980044F8045B8B42F9D1084B00F1140153F881
:1001A800044B41F8044B9342F9D1044B283053F8DF
:1001B800041B40F8041B9342F9D130BDEC24040819
:1001C80020B10078B0FA80F04009704701207047EC
:1001D8000079400970470079C0F3401070470079F2
:1001E8007047436A8269D154436A02690133934272
:1001F80028BF0023426B4362D36843F08003D36077
:1002080070470346026A4169885CD96801328A42AC
:1002180028BF0022C0B21A627047D0E90902131A37
:10022800584258417047D0E9092300699A4238BFBB
:100238001218D31A0138C01A7047D0E907239A4216
:100248002FBFD01AC0688018C01A7047434B30B50A
:100258005C68186D9A688C4208440BD993F858402A
:10026800002C78D000F5803082422AD3C2F5803243
:1002780002440AE08242F9D293F85840002C14BF95
:100288004FF480340024821A121BDA60C3E901108B
:100298000022D96883F8582040F68C2291423ED932
:1002A8001A7893F955108A4250B21ED1111F0C29A1
:1002B8001BD893F85610182906D8013183F8561020
:1002C80004E04FF48034DEE783F8540093F95410C7
:1002D8008A4202D193F85710D1B9012283F85720E6
:1002E80083F8550000221A7030BD0021E6E703EBC1
:1002F80081052D6924F8115001318A42F7DC18492B
:1003080000240F2A07DD17490A7801320A70E4E74A
:100318000021134CF1E721F812400132F1E793F87C
:100328005720002AE0D0A1F2EF2040F2DA529042A2
:1003380007D81A780F2A04D8101D013243F8201064
:10034800D1E7002283F85720104699180432402A32
:100358000861FAD1C8E7824295D387E72C6C002060
:100368005E6500205C650020064A136D01330B446E
:1003780013654FF6FF73994204BF012382F8583082
:10038800704700BF2C6C0020024B1B685B0500D532
:1003980021E0704744130010034B53F820300BB191
:1003A8009B681960704700BFB8170020044B03EB27
:1003B800C00040F2FF739942A8BF19468180704778
:1003C800245E0020704701207047012070470120FB
:1003D80070470120704770B5114C05460E46002243
:1003E8000023D4E910013EF0F1F820B10AA3D3E9C3
:1003F8000023C4E9102330463DF016FED4E910234B
:100408003DF0A6FF3EF02AF904EB4504A4F84800A5
:1004180070BD00BFAFF30080ABAAAAAAAA461040DD
:10042800B81700200E4B984213D0A3F57843984292
:1004380011D003F5806398420FD10223094A142191
:1004480001FB03231A8A013292B21A82188A80B2F7
:1004580070470023F2E70123F0E74FF0FF307047C1
:100468000030014068130020F8B584894FF6FF7604
:100478004FF47A740BB901201CE082B1157801326F
:100488000789BF070DD5ADB285814FF47A74058908
:10049800ED0710D4013CA4B2B442F8D105E0FF2521
:1004A800EEE7013CA4B2B442EAD1FFF7BBFF00304B
:1004B80018BF0120F8BD8589ADB209B10D700131B1
:1004C800013BD7E708B540F2E933028992070BD51B
:1004D80089B2818140F2E9330289D2070CD4013B09
:1004E8009BB2002BF8D103E0013B9BB2002BECD16F
:1004F800FFF798FFC0B208BD8089FBE730B5084B0D
:1005080008498B4200D330BD5A88140406D55D686B
:10051800DC68C2F30B0200FB025222601433F0E7DE
:1005280048DD04086CE1040830B50278202A034647
:1005380000F10100F9D0092AF7D02D2A4BD1034642
:10054800BFEE000A9FED3C7A1A46F2EE046A1346A3
:1005580012F8010BA0F13001CCB2092C41D92E2898
:100568000BD1F2EE046A1146B0EE666A0B4611F83A
:10057800012B303AD0B209283CD91A7802F0DF02B0
:10058800452A53D15A782D2A3FD102330120013B05
:1005980000220A2513F8011F3039CCB2092C3AD9A8
:1005A800B2F59A7F1346DFED256A28BF4FF49A7398
:1005B8001A46F7EE007A072A30D8DA086FF00701F2
:1005C80001FB0233F2EE046A63BB88B3C7EE276A05
:1005D80020EE260A30BD2B2A08BF0346B7EE000AD4
:1005E800B0E707EE901AF8EEE77AE7EE267AB0EE73
:1005F800677AACE707EE902AF8EEE77AC7EEA65AD4
:1006080066EE866A37EE257AB0E72B2A14BF0133E7
:1006180002330020BBE705FB0212BBE767EEA67AB0
:10062800083AC8E767EEA67A013BCDE7F7EE007A0D
:1006380067EE276ACCE700BF0000000020BCBE4C74
:10064800A0F13003DAB2092A01D818467047A0F1A0
:100658006103052B01D857387047A0F14103052BDA
:1006680094BF37384FF0FF30704703685A1C026058
:100678001970704703685A1C0260197070472DE999
:10068800F74F91469DF83020002A14BF4FF0300AEA
:100698004FF0200A1C1E0D9B06468846BABF6442CE
:1006A8004FF0010B4FF0000B13F8012B02B134B9D6
:1006B800BBF1000F10D000230D9D5F1B12E0013C21
:1006C800F2E7464502D251463046C84715F1FF3594
:1006D800F7D223462C46EFE72546F7E7464501D2F1
:1006E8003046C847EB1915F8011B0029F6D1BBF1B4
:1006F800000F05D02546002D06DC002CA8BF1B19CD
:10070800184603B0BDE8F08F464504D2514630463E
:100718000193C847019B013DEDE703690133012BB4
:10072800036106D1002380ED010A80ED000A836091
:10073800704790ED006A07EE903A70EE466AF8EE60
:10074800E77A86EEA77A77EE067A90ED027AC0ED20
:10075800017A30EE670AC0ED007AA6EE807A80ED65
:10076800037A80ED027A7047D0ED006AD0ED057A01
:10077800E6EE807AB0EE407AB0EE670AD0ED037A02
:10078800D0ED016A67EEC07AE6EE877AD0ED066AA8
:1007980077EEA67AD0ED026AC0ED057AD0ED047A3C
:1007A80067EEC07AE6EE877AC0ED067A704790ED7C
:1007B800056AD0ED017AD0ED004A90ED024A90ED3D
:1007C800077AD0ED035A90ED045A66EE277AF0EED8
:1007D800406AE4EE807AD0ED064AC0ED056AE4EEA0
:1007E800247A80ED066AE5EEC77AD0ED085A80EDE6
:1007F800087AE5EE657AB0EE670AC0ED077A7047C9
:10080800D0ED026A90ED017AD0ED007A36EE877A63
:1008180030EE670A86EE876AE6EE007AB0EE670A7F
:10082800C0ED007A7047704743230B80004870473B
:100838000000002010B5064C606CFF2806D0054962
:100848008A6E6C3139F019FBFF236364002010BDF8
:1008580000000020B817002008B5D0F8E4355B6A1E
:100868009847002008BD08B5D0F8E4351B6A9847BA
:10087800002008BDD0F8E43510B504461B68984739
:10088800D4F8E8359B689847002010BD08B5D0F823
:10089800E435DB6903B19847002008BD08B590F836
:1008A800123180F81331042380F81231D0F8E8357A
:1008B800DB689847002008BD10B5D0F8E835044635
:1008C8001B699847032384F81231002010BDF0B546
:1008D8004B784C69012B27D182691568136914B9C3
:1008E80064F3060305E08E68A642F9D24E6166F30A
:1008F800060343F400231361C478012C05D10B7857
:100908000E6900EB83039B695E6145F00445156041
:1009180044B94B6933B102690978506B01238B40A4
:10092800034353630020F0BD0B788F6800EB83030B
:1009380007F07F065A6D156813696CB966F30603EC
:1009480043F400231361C378012B04BF0B6953617F
:1009580045F004451560E5E74F61EFE72DE9F04103
:1009680091F801E00D784B69CE78BEF1010F4FD1B7
:1009780000EB850CDCF818703A683C6963F31204E4
:1009880093B96EF3DC443C61C478012C1BD10D692A
:100998007D61012E25D100698068C00554BF42F0F1
:1009A800005242F080521CE0D1F8088008EB030E98
:1009B8000EF1FF3E012EBEFBF8FE6EF3DC4408BFCD
:1009C80066F35E74DFE7012EE5D053B1D0F810E08E
:1009D8000120DEF8348000FA05F545EA0805CEF86E
:1009E800345042F00442012E3A6009D144B99BB216
:1009F8000333C968DCF8D0009B102246934202D129
:100A08000020BDE8F08151F8224004600132F5E78A
:100A180000EB8505D1F808C06F6DCCF312053A6874
:100A28003C69A3B965F31204012363F3DC443C6118
:100A3800C378012B04BF0B697B61012E03D14B796D
:100A4800A3B142F0005242F004423A60D8E763444E
:100A5800013BB3FBFCF3C3F3090363F3DC446B43CF
:100A6800C3F3120363F312044B61E0E742F08052D0
:100A7800E9E770B501F07F05282404FB050104FBB4
:100A880005040126C4F82821C4F82C21002201F508
:100A98008E7184F81D6184F81C51C4F83421C4F89F
:100AA80030311DB9FFF713FF002070BDFFF756FF67
:100AB800FAE7214B5A6F0F2A70B502F101011D4662
:100AC80002D05967002070BD1C4900236B670B7862
:100AD800002BF7D11A4C2268B2F5006F08BF2360CB
:100AE800184B22681B689A4202D100230B70E9E771
:100AF8008CBFC2F500639B1AAB67AB6F402B0ED956
:100B0800403B02F14006AB6701230B70266040238F
:100B18000D4911FA82F28121FFF7ABFFD2E702EB10
:100B2800030626604FF00004AC670EBF02240124C0
:100B38009BB20C70ECE700BFB8170020D0970020DC
:100B48006097002064970020D197002070B518495D
:100B58000B78012B0C4603D1164DAB6F5BB90B70AC
:100B68002378022B17D100231A468121FFF781FF32
:100B7800002323700FE0104C402B22680DD9403B16
:100B880002F14001AB67216040230C4911FA82F25F
:100B98008121FFF76EFF002070BD03EB020626607F
:100BA8004FF00004AC670ABF02249BB20C70ECE75C
:100BB800D0970020B817002060970020D197002018
:100BC80010B504461346C4F83C21C4F83821022263
:100BD80080F811210A460021FFF74BFF002010BDC5
:100BE80070B50C46282606FB040506FB0101C5F86E
:100BF8008833002385F87443C5F88023C5F88C33FF
:100C080085F87533C37806FB0404012B08BFC5F8C3
:100C1800842394F8743301F55D711BB9FFF757FE0F
:100C2800002070BDFFF79AFEFAE738B5282303FBCA
:100C38000101074DB1F88C130446284639F0E8F84D
:100C480040232A4601212046FFF7CAFF002038BD6D
:100C58003418002030B50B78497801229A4000EB0F
:100C6800830301294FF000052C460CBF9B695B6D7F
:100C780092B20CBF62F30F0462F31F446FF3CF35D7
:100C880002691D60D36923EA0403D361002030BDE3
:100C980040F2011310B500F5A2710446A0F84431E2
:100CA800FFF7D8FF0123A4F89C3304F567712046A9
:100CB800FFF7D0FF4FF48173A4F86C3104F5B671D7
:100CC8002046FFF7C7FF39F019F9002010BD0B784F
:100CD80030B501224D789A4000EB8303012D0CBFFB
:100CE8009D695D6D2B6892B24FF000040CBF62F3F2
:100CF8000F0462F31F441A040DD48A6862F30A03CE
:100D0800CA7862F39343CA8862F3995343F08053D5
:100D180043F400432B600369DA691443DC61002063
:100D280030BD2DE9F04140F20113044602260025AA
:100D38004FF040080127A0F84431C0F84C8180F8F2
:100D48004761A0F84A7180F8485100F5A271FFF791
:100D5800BEFF04F56771A4F89C73C4F8A48384F8F3
:100D68009F6384F8A0532046FFF7B1FF4FF48173C7
:100D7800A4F86C310823C4F87431032304F5B67160
:100D880084F86F31A4F872612046FFF7A0FF074B83
:100D98001E715D7139F0B8F84346054A3946204658
:100DA800FFF71EFF2846BDE8F08100BF541300205E
:100DB8003418002070B5002540260446A0F8745366
:100DC800C0F87C6380F8775300F55D71FFF77FFF0B
:100DD8004FF48073A4F81C3104F58E71C4F82461B3
:100DE80084F81F51A4F822512046FFF770FF012311
:100DF80084F81231D4F8E835A0785B68984728461B
:100E080070BD0E4BDA68D20310D4DA68D1060FD45D
:100E1800DA68D2050ED4DA6812F0E00F0CD1DB687C
:100E280013F0020F14BF08200920704701207047F3
:100E3800062070470220704707207047003C024098
:100E480007B509238DF80730FFF7DBFF8DF807009A
:100E58009DF80730012BF7D09DF8070003B05DF827
:100E680004FB38B50A4C54F83030054607EE901AA2
:100E78006BB193ED047A93ED030AF8EEE77AA7EEE7
:100E8800870A3FF04BF954F835309B68186038BD35
:100E9800245E002008B5202141F097FA0346184641
:100EA80023B10278202A03F10103F8D008BD2DE907
:100EB800F0410C4DDFF830802C686A690127144036
:100EC8000CB9BDE8F081B4FA84F3C3F11F0307FA43
:100ED80003F658F823000368984724EA06046E616D
:100EE800EEE700BF003C0140F842002038B50C4650
:100EF8008D18AC4200D138BD14F8011B23F04EF810
:100F0800F7E710B5042800F2F180DFE810F00E00D2
:100F180005001000B000E60001390F2900F2E68054
:100F2800734B03EBC101B1F90210084610BD10293B
:100F380000F2DC80DFE801F0091015202C3033378F
:100F48003A3D415A6072778A970012F069FFFCEEC9
:100F5800C07A17EE901A01E0664B196881F30F0109
:100F6800E3E736F029F947F6FF736421B0FBF1F1A6
:100F78009942A8BF1946D8E75F4B1B88642159439B
:100F880040F2FF3391FBF3F16329A8BF6321CCE75B
:100F98002CF0A0FB0146C8E72CF0E4FBFAE7574B1E
:100FA800B3F90010C1E7564B1968BEE7554B197ADB
:100FB800BBE7544BB3F92410B7E7524BB3F92440BD
:100FC80036F06AF9D0ED057AFDEEE77A17EE903A39
:100FD8005B4304FB043300EE103AB8EEC00A3FF05E
:100FE800BDFBFDEEC07A17EE901A9EE7464BD3ED97
:100FF800057AFDEEE77AACE736F04EF9D0ED027AE5
:10100800FDEEE77A47F6FF7317EE901A9942A8BFEC
:1010180019463E4B9942B8BF194686E736F03CF967
:10102800D0ED057AE5E73A4BB3F90610B1F5FA6F5A
:10103800A8BF4FF4FA61B1F57A7FB8BF4FF47A715F
:10104800A1F57A710A2391FBF3F16EE7314BB3F9FD
:1010580000100A2391FBF3F111F1B40F43DBB4291B
:10106800A8BFB42161E72B4BB3F90210F1E70829B7
:101078003CD8DFE801F0050A0F14191E23282D00BB
:10108800254B1968C1F340214FE7234B1968C1F379
:1010980000214AE7204B1968C1F3001145E71E4BB0
:1010A8001968C1F3401140E71B4B1968C1F30031BF
:1010B8003BE7194B1968C1F3C00136E7164B1968AD
:1010C80001F0010131E7144B1968C1F340012CE725
:1010D800114B1968C1F3C03127E70F2906D80F4B08
:1010E80053F8311021E76FF0B3011EE700211CE728
:1010F80094840020F857002004B70020B657002039
:10110800B8570020C0570020005800205A80FFFF21
:10111800D00D00102C030010D80D00100C41002039
:101128002DE9F74F414C424EDFF81091DFF810A13E
:10113800DFF810B100220023C4E900234FF00008B3
:101148003378002B4AD096F90130B1683079002BFA
:10115800A8BF384A4FF00C07A8BF52F8335007FB16
:1011680008F7B8BF01252A1C17F80930019318BFE2
:10117800012207F80920FFF7C4FE4F44B2787860CF
:10118800019B072A2AD8DFE802F0040D151B333A21
:1011980041481DB3D4E9002342F001001946C4E9CF
:1011A80000011BE0D5B1D4E90023CAF8040042F0DD
:1011B8000200F3E795B1D4E9002342F00400EDE71B
:1011C80065B15BB9DBF8003043B19B799842A8BFA1
:1011D80018460128184BB8BF0120987008F101087B
:1011E800B8F1080F06F11006AAD103B0BDE8F08FD8
:1011F800002DF3D0D4E9002342F00800CEE7002DFB
:10120800ECD0D4E9002342F01000C7E7002DE5D068
:10121800D4E9002342F02000C0E7002DDED0D4E955
:101228000023CAF81C0042F04000B7E7B0060010DF
:10123800206000200C410020A04200200000001087
:10124800F8020010604300202DE9F84F3E4D3F4F53
:10125800002640F2826940F24D1A2B784FEAC60BFD
:10126800002B6DD007EB0B0898F80430D90725D46C
:10127800A9682879FFF745FE29690446287BFFF706
:1012880040FE6B7857F80B200D2B4ED8DFE803F0A3
:101298003F071D22272E35373D41454B4F52221A15
:1012A800544254412B7D47F80B40DB0706D52CB13F
:1012B80098F8043043F0010388F804300136102E02
:1012C80005F11805C9D1BDE8F88F8442D4BF0024C0
:1012D8000124E7E78442ACBF00240124E2E740F29E
:1012E80034539C42CCBF00240124DBE7A4F23554DC
:1012F80054458CBF00240124D4E74C45E6E7002C74
:10130800D0D0041C18BF0124CCE7002CF9D001244C
:10131800C8E7241A18BF0124C4E7002CF7D0B0FA94
:1013280080F46409BEE7002CF9D00024BAE7B4FAC7
:1013380084F4F6E7002CEAD1002808BF1446B1E788
:1013480047F83630BAE700BFA05E00200C41002005
:1013580070B50A7812F0600406460D462AD0202C93
:101368002FD1CC884B78FCB112060CD522461E49E9
:10137800184638F082FDEA881B493046FFF720FC02
:101388000024204670BD194AC0F894435364184A93
:10139800C0F890430323946680F811316C322346D9
:1013A8000021FFF71DFCEBE702221144184638F034
:1013B80064FDE6E74B780A2B08D00B2B0BD0062BE5
:1013C800DFD1304639F06CF80224DAE70122094906
:1013D800FFF7F6FBD5E78B781BB9054AC2F8BC3096
:1013E800CEE739F05DF8CCE7241800200000002093
:1013F800B817002074180020094A537C0A2B0DD115
:10140800137C632B0AD8074B50681B68A3F51C5341
:10141800103B984234BF00200120704700207047DD
:10142800D03B0020D49F00200F4B10B51C686107EB
:1014380002D534F02BFAA8B1A20602D534F01EFA70
:1014480080B10A4B93F8D00001280AD0084B1878CD
:10145800012801D1A30704D4064B1878023818BF15
:10146800012010BD0120FCE7280300109074002023
:10147800040D001008070010084A03465078C01AE7
:1014880018BF0120022B88BF00235370044AC3EB06
:10149800C30302EB8303034A13607047F02D002057
:1014A800006E0020B02A002070B50B4E35782D1A3A
:1014B80018BF01250328044634BF044600242046EB
:1014C800FFF71CF8054B347004EB840403EB840429
:1014D800034B28461C6070BDF02D002078180020B2
:1014E800C47F002030B50139421E50FA81F1002036
:1014F80012F8014F082380EA040515F0010F4FEA9E
:10150800500018BF80F08C0003F1FF3318BFC0B241
:1015180013F0FF034FEA5404EDD19142E8D130BDF6
:1015280070B530B34C6844B9426815685679AB89D0
:101538000222B24023EA0203AB818A683AB94368BF
:101548001D68AB8923F001031B041B0CAB81816070
:1015580044B14468216864798D890223A3402B43F0
:101568009BB28B812AB143681A68938943F00103BF
:10157800938170BD2DE97848214B5A68214BC2F3FD
:1015880008028AB9EFF3118272B91F481F491D6812
:1015980086681A689542FAD1D1F800219642F6D8A1
:1015A8001B4BD3E900231AE0EFF31182102181F3DA
:1015B800128801F1E0218E68086810F4803F134812
:1015C8001EBF0124C0F8FC408E681968D0F8FC5092
:1015D800D3B283F311880E4BD3E900230D444FF4A3
:1015E8007A74A2FB04BC04FB03CCBBEB06006CF1D1
:1015F80000013DF001FAE4FB0501BDE8788800BF71
:1016080000ED00E0D49F002010E000E0B8170020B3
:101618006055002070B56D4C256815F0040604D09F
:101628000120BDE8704039F0D1B8FFF7FDFE684BE6
:10163800002800F0998045F40075256083F804615E
:10164800644A236892F82A20012A14BF43F48023AD
:1016580023F480232360604B1B7843B9256824F06A
:10166800F3FF002800F08E8045F40025256035F052
:10167800F5FA40B1256825F00DF8002800F08580BE
:1016880045F400052560554D23682A681207544A19
:1016980054BF43F4807323F4807323601288236853
:1016A800632A8CBF43F4806323F4806300202360A3
:1016B80037F0ACFE236800286AD043F40063236047
:1016C800484B1A682368160765D52968C80562D487
:1016D80043F480532360910723685FD52A689205F5
:1016E8005CD443F4005323602BF07EFE236800286B
:1016F80057D143F400431220236024F0CBFE236823
:10170800002851D043F480331720236024F0C2FE10
:10171800236800284BD043F400331B20236024F0B7
:10172800B9FE2368002845D043F080732360002069
:1017380024F0B0FE25682C4B2C4A1D423FD00028CF
:101748003FD045F4804525602168194235D00223F1
:101758001370FFF70FFF264B1B68C01A002833DBF6
:10176800BDE870402EF068B993F8042125F400759F
:101778002560002A7FF464AF012083F8040123F078
:101788006DF85DE725F4002570E725F4000579E795
:1017980023F4006393E723F480539BE723F4005377
:1017A800A1E723F40043A6E723F48033ACE723F44E
:1017B8000033B2E723F08073B8E70023C8E70028B6
:1017C800FBD125F48045BEE770BD00BF20030010A3
:1017D800B8170020AC420020545E002044130010CB
:1017E800E40600102803001080FFFF0F246D00207E
:1017F800286D0020F8B504460D46FFF7BBFE0646E7
:101808000F46FFF7B7FE821B61EB0703AB4208BF29
:10181800A242F6D3F8BD10B5044614F1FF3400D245
:1018280010BD4FF47A700021FFF7E4FFF5E7EFF3FE
:101838001183102282F3128808490A6801320A606B
:10184800074A08499068C1F800010020C1F8FC0067
:101858001268DBB283F31188704700BFD49F002061
:1018680010E000E0B817002008B503681B6A03B150
:101878009847012008BD03689B6A03B11847704761
:1018880003685B6A03B11847704703689B69184788
:1018980003685B69184703681B6918470368DB68B6
:1018A800184703689B68184703685B68184703680C
:1018B8001B68184708B5194B194C1D68A06822F019
:1018C8009DFB284622F09AFBA06841798B0703D438
:1018D80041F00201FFF7D9FF002038F077FFA06838
:1018E800FFF7E2FF60B1012038F070FFA068FFF752
:1018F800D5FF01462846FFF7DAFF002038F066FFDB
:101908002846FFF7D1FF0028E9D02846FFF7C6FF91
:101918000146A068FFF7CBFFE1E700BF8432002053
:10192800BC2A00200368DB6970B506460C461546DC
:101938007BB90D442B1B002B00DC70BD3046FFF734
:10194800B0FF0028FAD014F8011B3046FFF7AFFFAC
:10195800F0E7BDE870401847E4E7014B1868A6E7D0
:10196800CC32002038B505460C4614F8011B01B9E5
:1019780038BD2846FFF79BFFF7E7044BD3F808313B
:1019880013B10F2800D81847704700BFB8170020B8
:10199800074B93F80C3103EB4302064B13445A7D73
:1019A8001AB9987D00F0010070470120FAE700BFDE
:1019B800B8170020EC24040810B50409013C032CD6
:1019C80000F00F0217D80D4B33F8141041FA02F348
:1019D80013F001000ED001209040013808403DF07E
:1019E80023F8074B1C440C2294F832301844054B5A
:1019F80002FB003010BD0020FCE700BF0C3F0408CC
:101A0800EC24040890A6002010B1036882885A8349
:101A1800704710B1036882881A83704770B51646FC
:101A280090F90C20142353430C4AD55883689A071D
:101A3800044602D40069FFF7E7FF2846FEF742FD97
:101A48000123002231462846FEF70EFDA3689B07B6
:101A580002D42069FFF7DDFF012070BD6813002064
:101A6800F8B5164690F90C201F46142353430D4A27
:101A7800D55883689A07044602D40069FFF7C4FF63
:101A88002846FEF71FFD3B46002231462846FEF752
:101A9800EBFCA3689B0702D42069FFF7BAFF01207B
:101AA800F8BD00BF68130020F8B5164690F90C2061
:101AB8001F46142353430D4AD55883689A07044692
:101AC80002D40069FFF7A0FF2846FEF7FBFC3B465F
:101AD800324600212846FEF7C7FCA3689B0702D4BC
:101AE8002069FFF796FF0120F8BD00BF68130020AA
:101AF800F8B5164690F90C2014235343104AD558CC
:101B080083689A0704460F4606D40069FFF77CFFEE
:101B180001200021FFF76EFE39462846FEF7D2FC69
:101B280031462846FEF7CEFCA3689B0706D4012061
:101B38000021FFF75FFE2069FFF76BFF0120F8BD6A
:101B48006813002028B10368828809B11A83704796
:101B58005A837047044B01461868044B1B780BB92D
:101B680081F00101EEE700BFAC330020B033002064
:101B780080B580460B25013D01D11FF0FDFD0020F9
:101B880038F024FE08F101063227052438F010FE4B
:101B98000120FFF7DFFF3846FFF73DFE38F008FE6B
:101BA8000020FFF7D7FF3846FFF735FE74B1013C38
:101BB800ECD14FF4FA70FFF72EFEFA2726B94FF44E
:101BC8007A70FFF728FED6E70024DFE7013EF5E745
:101BD800F8B50468C4F30D0405460E4604B32F682F
:101BE800FFF72EF9092840F08780454C236923F434
:101BF80040732361236943F400732361236943F02D
:101C0800010323613E60FFF71BF92369092823F0CC
:101C18000103236170D12B6804332B60002034E06A
:101C2800384B394A93422AD902F58042934225D942
:101C380002F58042934229D902F58042934227D97E
:101C480002F58032934225D902F50032934223D916
:101C580002F50032934221D902F5003293421FD98E
:101C680002F5003293421DD902F5802293421BD916
:101C7800B3F1016F1AD30520FFF77AFF0824FFF7A5
:101C8800DFF8092814D04FF0FF30F8BD1024F6E72C
:101C98001824F4E72024F2E72824F0E73024EEE7BC
:101CA8003824ECE74024EAE74824E8E75824E6E744
:101CB800134F3B6923F440733B613B6943F4007362
:101CC8003B613B6923F0F8033B613B6943F0020346
:101CD8001C433C613B6943F480333B61FFF7B0F838
:101CE8003B6923F002033B613B69092823F0F803B1
:101CF8003B613FF474AFC6E76FF00100C5E700BF72
:101D0800003C024000000E08FF3F0008F8B50446FA
:101D18000D468E180027B542206900D1F8BDE3684A
:101D2800591CE160234415F8012B1A720429F2D1D9
:101D380018B9A1682046FFF74BFFC4E90370EAE72A
:101D480030B1036882881B691A4214BF0120002041
:101D5800704728B18088B0FA80F0C0F11F00704742
:101D68004FF0FF30704730B1006800F13F4000F598
:101D78007E00800A70474FF0FF307047FFF797B832
:101D8800FFF795B8FFF793B8FFF791B8FFF78FB84B
:101D9800FFF78DB80368D3F8883003B11847704748
:101DA8000368D3F8843003B11847704703689B6F02
:101DB80003B11847704703689B6C03B11847704715
:101DC80003685B6C03B11847704710B40468A46AD1
:101DD8001CB1A4465DF8044B60475DF8044B70479E
:101DE80003685B6A03B11847704703681B6A03B14D
:101DF8001847704703685B6803B118477047036862
:101E08001B6803B11847704703685B6C03B1184738
:101E1800704703689B6A184703685B6A18472DE98F
:101E2800F04105468AB018460F4690461C463BF0DE
:101E3800A1FF3B189DF84060AB722B7C85F80B80A6
:101E480036EA030319D0F20717D5114BC8221B68CD
:101E5800B3FBF2F3DB0706F0FE060ED51F2828BFFA
:101E68001F2004460246202102A840F097FA0AAB38
:101E78001C44002304F8203C02AC2B6800965E69E1
:101E88004246234639462846B0470AB0BDE8F081A5
:101E9800D49F00202DE9F3410446184616460D4606
:101EA8001F463BF067FF2368E67228440022A072B1
:101EB8000092D3F8148032463B4629462046C04754
:101EC80002B0BDE8F081036810B504465B68984726
:101ED800236820469B689847E37B013BE37310BD6A
:101EE800036810B504461B689847236820469B681A
:101EF8009847E37B0133E37310BD10B5037A0446BA
:101F08000BB1437A13B92046FFF783FF23682046B5
:101F1800DB68BDE81040184710B5036804469B68A5
:101F2800984701236373FF23A37310BD0368DB6B1A
:101F380013B5044623B923685B6B33B9FF230CE060
:101F480098470028F7D102B010BD214601A898474C
:101F58000028F3D0BDF80630013B6382F3E738B5BB
:101F680004468B6821600D4698470122002362735E
:101F7800FF22E281237423732B6B13B12046984709
:101F88002074074B93F80D311BB1237C23F0010318
:101F98002374002363822046BDE83840C6E700BFAB
:101FA800B81700202DE9F3411F46438A04460D4621
:101FB80016460BB9FFF7BAFF638ABB420FD36B1CF7
:101FC800A372002223680092E672D3F81880324682
:101FD8003B4629462046C04702B0BDE8F0814FF095
:101FE800FF30F9E703899B0746BF0089C0F3C0109B
:101FF80001207047F8B50579012D0346174609D029
:10200800022D23D18368DB0758BF41F08001BDE86A
:10201800F84003E50E4A90F90C00182404FB00244C
:1020280062788AB19A685B7BE1725B006372002315
:10203800A37223750223A37002F00103C4E90357B6
:1020480023721FF049FE227D1046F8BD0022FBE7EF
:102058001455002010B5021D0446FF210068FFF743
:10206800C9FF18B12079C04300F0010010BDF8B5D0
:1020780004460E461546071D3A46FF212068FFF71D
:10208800B9FF30B116B12379DB07F5D40DB1237947
:102098002B70F8BD00220121E9E72DE9F041047910
:1020A800012C054616461F4609D0022C24D1846807
:1020B800E40758BF41F08001BDE8F041D0E40F4B80
:1020C80090F90C00182404FB003463788BB16A7B08
:1020D800AB68E17252006272002203F00103A2723F
:1020E800227502222372C4E90376A2701FF0F4FD60
:1020F800237D1846BDE8F0810023FAE71455002037
:1021080007B5012301AAFF210068FFF7C6FF03B046
:102118005DF804FB13B502230C4601AA00210068F0
:10212800FFF7BBFF60B15CB19DF80530DB099A0091
:1021380013449DF9042002EB820203EB420323803F
:1021480002B010BD73B50579012D0E4614460AD0AC
:10215800022D29D18368DB0758BF01F07F01FFF703
:10216800C7FC02B070BD90F90C108268437B0F4821
:102178008DF80740182404FB010460780028F0D08B
:102188005B0063720DF107032361002323750223AB
:10219800A37002F001030846E672A572E560237297
:1021A8001FF09AFD207DDCE70020DAE714550020B7
:1021B800CA0102F0800278210068C3E7C90138B576
:1021C80001F0800104461546FFF7F2FF08B9002028
:1021D80038BD002201212046FFF749FF0028F6D02C
:1021E80023795B092B70F3E70A4600688721A9E782
:1021F80038B505461446FFF7F7FF2846FFF74AFFAC
:10220800034620B11CB12846FDF7E5FF20701846AB
:1022180038BD9622FF21006894E70A460068A52188
:1022280090E75521F9E710B50446FFF7F6FF18B116
:102238002046BDE810402DE710BDCC21F3E770B56E
:102248004C1E0646A518AC4201D1012006E014F840
:10225800011F3046FFF7E7FF0028F4D170BDB42214
:10226800FF2100686EE710B50446FFF7F8FF18B1C4
:102278002046BDE810400DE710BD2DE9F04F87B0AE
:10228800CDE902120026814604930196039BF400CF
:10229800484603EB040AFFF7E6FF024600286FD022
:1022A800002201214846FFF7E2FE0246002867D0D7
:1022B80099F80430990763D5F0214846FFF7B3FF32
:1022C800024600285CD0039BA4F108024FF0000BE3
:1022D800012513442C465F460593029B002B55D0DD
:1022E800082C53D804F1FF3843FA08F808F001081D
:1022F80041464846FFF75CFF0246002840D00022CE
:1023080001214846FFF7B3FE0246002838D099F865
:10231800040000F0600160294FEAD01319D0029937
:1023280019B1082C01D898452AD11AF80710002BA2
:1023380040D029436D0015F0FF050AF8071004BFC7
:102348000137FFB204F1010408BF0125072FE4B2E9
:10235800C3D9402C10D9072150460592FFF7C2F87F
:102368009AF80710059A814206D10136F6B2BBF1F8
:10237800000F05D0CDF804B0049B1B78B34285D874
:10238800049B10461E7007B0BDE8F08F5EB1019B3C
:10239800A34208D9059BDA5D154214BF4FF0010826
:1023A8004FF00008A4E7019B1B1BD3F1000848EB82
:1023B80003089DE74FEA901C4CEA501010F0010FFB
:1023C80008BFA34621EA0501B4E737B50546CDE9BC
:1023D8000023FFF748FF98B12846FFF722FF78B19E
:1023E8002846FFF757FE58B100241DF80410284668
:1023F800FFF719FF20B10134082CF6D103B030BD26
:102408000020FBE710B50446FFF72DFF38B1204642
:10241800FFF713FF18B12046BDE810403AE6002048
:1024280010BDCA4341EA0212D2B2D221006889E63D
:1024380038B50446154600680A46E121FFF782FED2
:1024480028B12A462068FF21BDE83840D2E538BDCA
:1024580038B5021D0D46F0210446FFF7E9FF08B123
:1024680023792B7038BD0A46C321E1E70A46E121EA
:10247800DEE738B504460D46FFF7CBFE40B12046EF
:10248800FFF708FE20B129462046BDE83840EDE7B1
:10249800002038BDF8B506460F4615460024AC4264
:1024A80001D1012006E039193046FFF7E2FF013477
:1024B8000028F4D1F8BDF022FF21006842E60A4B5B
:1024C80070B5841CD3F81051A400E4B20E46CAB209
:1024D80028462146FFF736FE611C320A2846C9B253
:1024E800BDE870402EE600BFB81700202DE9F04186
:1024F8000E4E8046002406F1CC07E0B200F003033C
:1025080043450ED136F8145037F81430EB1A002B27
:10251800B8BF5B42052B04DD2946FFF7D0FF27F83B
:1025280014500134102CE8D1BDE8F08100180020C7
:1025380038B50F4BD3F810511022002141F2D7744F
:10254800B4FBF0F42846FFF7FDFD0120FFF763F91F
:10255800621ED2B2FE212846FFF7F4FD0120FFF7E4
:102568005AF9284680220021BDE83840EAE500BF34
:10257800B81700202DE9F0410679012E054694464A
:102588009E460AD0022E25D18468E40758BF41F040
:102598008001BDE8F041FFF787BA0F4B90F90C00B6
:1025A800182404FB003463788BB16A7BAB68E17252
:1025B80052006272002203F0010322750222237284
:1025C800A672C4E903ECA2701FF086FB237D1846AF
:1025D800BDE8F0810023FAE714550020F8B51F463E
:1025E80090F90C300446142058430C4B1D58A3682E
:1025F80016469A0703D42069FFF706FA00BF3B4640
:1026080032462846FDF730FFA3689B0703D400BF76
:102618002069FFF7FEF90120F8BD00BF681300200C
:1026280073B50479022C39D1032390F90C008DF885
:10263800033004238DF80430142343431A4E1B48F7
:10264800F3588DF802400025012283428DF800508E
:102658008DF8012024D0A0F57840834222D0144A76
:1026680093421BD1204602AA11441A8811F8084C3B
:1026780022F040021204120C14211A8001FB00609F
:102688001A88C16822F0380231F814101204120CAA
:102698000A431A801A8842F040021A8002B070BDBC
:1026A8002846E0E71046DEE76813002000300140C6
:1026B800003C004010B5427A044632B1036800F18C
:1026C8000A01406898470023637210BD064B1B68D7
:1026D800597A4A1C1944D2B25A728872197A9142AC
:1026E80001D81846E6E770478032002010B4447AD3
:1026F800631C0444DBB24372A172027A9A4202D884
:102708005DF8044BD6E75DF8044B704738B5094DC2
:10271800441E14F8011F01B938BD2868427A531CB9
:102728000244DBB243729172027A9A42F1D8FFF7FF
:10273800C1FFEEE78032002008B504460648FFF7DF
:10274800E5FF064B1868FFF7B5FF054B186821F041
:1027580055FC204611F044FB049404088032002004
:1027680084320020034808B5FFF7D0FF0120FFF7A7
:10277800E3FF00BF1094040808B50448FFF7C6FF3C
:10278800034B1868BDE8084094E700BF2994040883
:102798008032002010B504460648FFF7B7FF2046F0
:1027A800FFF7B4FF044B1B7813B1044B01221A70D6
:1027B80010BD00BF2E94040820AA002021AA0020E2
:1027C8000048A3E7079D040808B5FFF79FFFBDE889
:1027D8000840F5E708B50948FFF7F6FF084B186801
:1027E800FFF768FF074B00241C70074B1C60074B62
:1027F8001C7022F005FC2046FFF79EFF3A9404085F
:10280800803200208C3200208832002000C1002055
:1028180010B504460348FFF779FF2046BDE810408D
:10282800D2E700BF29940408124B53F8200070B572
:10283800E0B1114A062303FB002393F90140621C0F
:1028480015D0187990B10D4A0D4E155DDA786421CE
:102858001423002061438C18013B36F814402A44A5
:102868002044F8D11423B0FBF3F080B270BD0020EF
:10287800FCE700BF4C6A0020B53300208C360020EE
:10288800D433002038B503200D461446FFF7CCFF9B
:1028980007EE100A8DB1DFED0B7AB8EE477AF0EE4D
:1028A800006A27EE277AF8EE047AE7EE267A9FED9B
:1028B800067A67EE877AC5ED007A0CB1034B236080
:1028C80038BD00BF6740533A00007A443313904341
:1028D80070B544880B460546C4F30B042246002114
:1028E80018463FF05BFD2969084A9142034607D321
:1028F800074A914204D22246BDE870403DF060B9D3
:1029080019B11846BDE87040084770BD6CE104086D
:1029180078E404084388426813F4004F1EBFC9B224
:10292800C3F30B0301FB03221146D1E7064B07490A
:102938008B4202D30023184670471A88C2F30B0251
:102948009042F8D01433F3E748DD04086CE104083A
:1029580010B504460846FFF7E9FF18B12146FFF70E
:10296800B7FF012010BD034A136823EA0000106076
:10297800704700BF0C710020024A136818431060AA
:10298800704700BF0C71002038B5154C154DAC428E
:1029980012D30020FDF7B2FD13482CF005F84FF4D0
:1029A8008000FFF7E9FF00BF104B1878FEF77CFDA9
:1029B800BDE838400AF0FEB9B4F90230002B4FF0F8
:1029C8000001204607DAFFF7A5FF01212046FFF79F
:1029D800A1FF02212046FFF79DFF1434D7E700BF6F
:1029E80048DD04086CE1040864940408F02D002014
:1029F80070B501221049114C114E0020FEF776FAED
:102A080022884AB1A518B54214D2052A12D92146FE
:102A1800FEF76CFA2C46F3E702222146FEF766FA27
:102A28006388084AC31AA41A074A5842A2F83441CC
:102A3800584170BD0020FCE700000E0801000E0898
:102A480000001008FCFF0D08B81700202DE9F04F12
:102A58008DB02BF0E3FFDFF8B481674BA3EB0803DD
:102A68004FF0030901931022002108A83FF096FCBB
:102A7800019B0793614BCDF818801A69002ABFBFE4
:102A88005F4A5A6002F188325A600CAC0125F32281
:102A98008DF82C50DA607E2304F8243D2A4621461E
:102AA80006A8FFF733F921462A460020FEF71EFA4A
:102AB800544CADF80E004FF0000B534B9C4241D3E1
:102AC800022204A9002406A8ADF81040FFF71EF959
:102AD800BDF80E00022204A9FEF708FA0CA902228A
:102AE80021F8220D06A8FFF711F9099878B108AB6B
:102AF800C0F10402214618443FF050FC0A9818B966
:102B0800089906A8FFF764F800230A9009939DF82E
:102B18002C300A9A23B139490B6943F000430B6101
:102B2800B9F1010963D0002A9DD198F800307E2BB5
:102B38005FD1FFF75DFF00285BD02BF053FF0DB08E
:102B4800BDE8F08F62888DF815B0C2F30B06B31D8F
:102B5800ADF810302388C3F30B011B0B8DF814302C
:102B68001304ADF812101BD4062204A906A8FFF717
:102B7800CDF8BDF80E00062204A9FEF7B7F93246D3
:102B8800ADF80E00616806A8FFF7C0F8BDF80E00A2
:102B980061683246FEF7AAF9ADF80E0014348CE7E6
:102BA80000273D460135EDB2062204A906A88DF896
:102BB8001550FFF7ABF8BDF80E00062204A9FEF782
:102BC80095F96368ADF80E0003EB070A32465146E3
:102BD80006A8FFF79BF8BDF80E0032465146FEF7EF
:102BE80085F9032DADF80E003744DBD1D6E7002A6E
:102BF8009BD00520FEF7BCFF00001008003C0240F7
:102C08002301674548DD04086CE1040800000E084C
:102C180010B50023802804D893420AD2C854581CFF
:102C280010BD934205D060F07F04CC54C009013335
:102C3800F0E74FF0FF30F3E770B5034610F8012BCB
:102C4800202AFAD0092AF8D02D2A0ABF03460125DE
:102C58004FF0FF35591E00240A2611F8010FFDF721
:102C6800EFFC0A2802D905FB04F070BD06FB04043A
:102C7800F3E770B50D461446FEF70CF90646A0B109
:102C8800FFF7DAFF40F634039842A8BF1846B0F5BC
:102C9800617FB8BF4FF461701923A0F5617090FB94
:102CA800F3F028702378013323703046FEF7F2F8EA
:102CB8000646A0B1FFF7C0FF40F634039842A8BF0C
:102CC8001846B0F5617FB8BF4FF461701923A0F5BD
:102CD800617090FBF3F068702378013323703046FD
:102CE80070BDB5EEC00ADFED2D7AF1EE10FACCBF5B
:102CF80030EE270A30EE670ADFED297A20EE270A40
:102D080030B5FDEEC07A87B017EE904A054684EAE2
:102D1800E470002303A9A0EBE470CDE9003302932B
:102D280037F022FD002CACBF20232D2303A88DF8FB
:102D380000303BF01FF8012822D130238DF80130F4
:102D48008DF802308DF8033003A968463FF02EFB5A
:102D580068463BF00FF80338C4B222466946284655
:102D68003FF07FFB00232B550E4928463FF01EFB02
:102D78000DEB040128463FF019FB284607B030BD8B
:102D8800022805D130238DF801308DF80230DBE7B9
:102D9800032804BF30238DF80130D5E76F12033ABA
:102DA80000007A44DFC1040870B506461546084697
:102DB800B6FBF2F414B12046FFF7F6FF05FB1464E6
:102DC800024B1B5D00F8013B70BD00BF6D94040809
:102DD800F0B50124B0FBF4F58D4203D200271CB9ED
:102DE8001C70F0BD4C43F5E7B0FBF4F604FB16008D
:102DF800B4FBF1F42FB9002E03DC002CEFD1302501
:102E080005E0092EFBDD002A14BF37255725354478
:102E18001D7001370133E2E70A4B2DE90048D3E979
:102E280000BC5BEA0C030AD0074909681BEB0102E6
:102E38004CF10003C0E900230120BDE80088002010
:102E4800FBE700BF502B0020D49F0020F0B5264E92
:102E580004460F460FCE8DB06D460FC50FCE0FC579
:102E680096E80F0085E80F0014F0030335D16421BC
:102E780094FBF1F201FB124242B94FF4C87294FB81
:102E8800F2F302FB1343003318BF0123C3F11D0300
:102E980040F26D1201930420631E93FBF0F002FBD5
:102EA80004046FF0630093FBF0F020444FF4C874FF
:102EB80093FBF4F31844063000220721013F5DF824
:102EC80022309742184490FBF1F4C4EBC404A0EB01
:102ED800040004D1181A0DB0F0BD0123D6E7013261
:102EE8000C2AECD10020F6E724250408F8B514468E
:102EF8001D4606464FF47A720023204629463BF0C9
:102F08002BFD2C4B3C22034493FBF2F002FB1031C7
:102F1800B17190FBF2F102FB1102182072714FF4AB
:102F2800616293FBF2F292FBF0F100FB1122327125
:102F38002149224A93FBF2F293FBF1F3980040F205
:102F4800B55392FBF3F103FB1123B3F5896F2DDA27
:102F580040F2DA2293422BDCB3F5B77FB4BF0022EC
:102F680001221749182707FB02170B2137F811C050
:102F78009C4501DD0139F9D100F5FA601044308033
:102F8800481CB0700C2000FB02120E4901EB4202F3
:102F9800013392F868209B1AF3704FF47A72002379
:102FA800204629463BF0D8FC3281F8BD0322D8E7F9
:102FB8000222D6E780BC92C7801F86078051010095
:102FC80054250408EC24040837B505466846FFF77D
:102FD80023FF044638B1DDE900232846FFF786FFC2
:102FE800204603B030BD40F2011328806B80A880D2
:102FF800A8712881F4E737B50546FFF7E5FF0446D1
:1030080040B1064B02AA1B8822F8023D29462846F1
:1030180037F072FA204603B030BD00BFCCA50020BF
:1030280010B50288C178A2F5FA629308013940F216
:10303800B55404FB031381780C24013902F0030210
:1030480004FB02120C49847901EB42021821B2F800
:1030580068201344027901FB0323427900893C214B
:1030680001FB0323054A224401FB03234FF47A7230
:103078000021C2FB030110BDEC24040880436D3815
:1030880030B50244904201D1002311E010F8013B11
:10309800A3F14104192C11F8014BA4F1410598BF83
:1030A8002033192D98BF20341B1B01D1002CE9D1E6
:1030B800184630BD70B5054608460E463AF05AFE29
:1030C8003146044602462846FFF7DAFF60B92B5D11
:1030D800A3F13002092A06D923F02003413B192B1A
:1030E80001D9601C284470BD0020FCE710B50446D7
:1030F8000848FFF70BFBFFF747FCFFF7A7FC064B59
:103108000649002220461A70FFF7D4FF08B9FFF7D6
:1031180013FB10BD9294040821AA00201C9B0408EC
:10312800D1E900329A4206D05A1C0A6008B11B78CD
:103138000370012070470020704710B502681146DF
:10314800531C036011F8024B0160D31C51780360D3
:1031580093781B0443EA0123111D0160D0782343AF
:1031680043EA006010BD03685A1C02601A4612F850
:10317800021B0260587841EA00207047D1E9002319
:103188009B1A012B10B5044605DD0846FFF7EBFF37
:103198002080012010BD0020FCE703685A1C026053
:1031A8001878704738B50446D0E900031B1A9A42CC
:1031B800154606DC3CF004FD22682A442260012002
:1031C80038BD0020FCE738B50446006815463CF0D9
:1031D800F7FC22682A44226038BD03685A1C026042
:1031E800197003685A1C02600A0A1A7003685A1C8C
:1031F80002600A0C1A700368090E5A1C02601970E2
:10320800704703685A1C026019700368090A5A1C3F
:103218000260197070472DE9F04F8BB04E1C18BF33
:1032280001F1FF31149C039280461D4614BF00EB48
:10323800010B8B4600270DF11C09297800292FD096
:10324800252907D0C34502D94046039B9847013535
:103258000137F2E769782D2905BFA978EE1CAE1C65
:10326800012518BF0025302906BF31780123002326
:103278000493A1F1300308BF0136092B4FF0000A6F
:1032880017D96C2940F0B0803278642A06F101051C
:1032980047D027D8252A00F0848014D8002ACCD11A
:1032A80038460BB0BDE8F08F0A2316F8011B03FB64
:1032B8000A0A0846FDF7C4F90A28F5D9002DE0D016
:1032C800CAF1000ADDE7582A1CD0632AB5D12E4678
:1032D800C34505D92178039B40469847251D2C46B0
:1032E80001375CE0732A4CD008D8662A61D06E2A70
:1032F800A3D12E46236804341F6050E0752A0AD0F3
:10330800782A9AD1A2F15800424204F104064B46A9
:103318004241102103E0261D4B4600220A21206865
:1033280007E02068002804F104061CDB4B46002255
:103338000A21FFF74DFD3446049B0093CDF8049015
:103348005346039A59464046FDF799F9074474E7EE
:10335800206800280EDB4B4600220A210434FFF7C0
:1033680037FD3546E8E72D238DF81C3040420DF136
:103378001D03DCE72D238DF81C3040420DF11D03A1
:10338800EAE72E462368019300230093039A5346E5
:1033980059464046FDF773F9251D07442C46354626
:1033A8004BE72E46C3459BD925214046039B9847AA
:1033B80096E72E46073424F00703D3E9000103F10A
:1033C80008043BF06BF900EE100A4846FFF789FC49
:1033D800049B0093CDF804905346039A59464046FF
:1033E800FDF74DF90744DAE76429B1D00CD825294F
:1033F800D8D003D800293FF453AFD0E7582910D0CC
:1034080063293FF465AFCAE77329BBD005D866299D
:10341800D0D06E293FF46EAFC1E775290CD078295A
:10342800BDD158394A424A412068251D4B461021D2
:10343800FFF7CEFC2C4694E7231D059320684B46E6
:1034480000220A21FFF7C4FC3546059C74E713B532
:10345800084C00910346084A20684FF0FF31FFF7F7
:10346800DAFE2068FFF726F902B0BDE81040FFF742
:10347800A7B900BF80320020F52600080FB407B5B1
:1034880004A951F8040B0191FFF7E1FF03B05DF8BF
:1034980004EB04B070472DE9F3471948194C1A4D4D
:1034A8001A4FDFF86C80FFF7E9FF04F54076A3793F
:1034B800E27994F808A005EB820205EB8303204625
:1034C800D2F85891D3F8C830FEF74DFC00F141010D
:1034D8002046FEF73EFC0246BAF1000F0AD0CDE9BD
:1034E80000A94046FFF7CAFF0C34A642DFD102B05C
:1034F800BDE8F087CDF800903846FFF7BFFFF3E747
:10350800A894040890A60020EC240408D494040885
:10351800C4940408F8B51048104D114E114FFFF728
:10352800ADFF002474B9104BD3F838316FF00302A3
:103538005A4312F500620BD055F824103046FFF7B5
:103548009DFF03E057F82420002AF5D1232C01D051
:103558000134E7E7F8BD00BFE2940408B425040885
:10356800F8940408F4180020B81700201FB5094B78
:103578000293094B0193094B0093094A094B0A49E5
:103588000A48FFF77BFF0A490A4805B05DF804EBD3
:1035980074E700BF36950408409504084995040867
:1035A8000C95040806950408199504081E95040846
:1035B80055950408969504082DE9F04F2DED028BDA
:1035C8004B489FED4C8A97B0FFF758FF00252E46D1
:1035D8002F460AA9E8B22BF049F99DF82C30002BA8
:1035E80062D0149C4CB107EE904AF8EEE77A88EE68
:1035F800277AFDEEC77A17EE904ADDF838A00F9BC0
:103608004FEAE4790AFB09F204FB0323AAFB04014D
:1036180041F2883B1BEB000B19444FF0000C4CEBBC
:10362800010C4FF47A720023584661463BF0E4F9E6
:10363800129B0993139B099A6343834602FB093340
:10364800A4FB020141F2883818EB000819444FF036
:10365800000949EB01094FF47A72002340464946B4
:103668003BF0CAF9032D4FF47A72109BB3FBF2F3C7
:1036780006934FF00A0318BF361890FBF3F203FBCA
:103688001200CDE904209BFBF3F203FB12B3CDE952
:103698000223099B0A9A1848CDE900A32946234624
:1036A80018BF5F44FFF7EAFE0135182D91D1134981
:1036B800D1E91A0240090C6E096F40EAC2624FF460
:1036C8007A730F48B4FBF3F3FFF7D8FE0A2296FB90
:1036D800F2F302FB136697FBF2F1009602FB1172FC
:1036E8000848FFF7CBFE17B0BDEC028BBDE8F08FA2
:1036F8009F95040800247449E6950408000000100A
:103708001B9604083D96040838B50346FCF758FD97
:1037180080B3214B9B6C0133172B21D81F490C22F6
:1037280002FB03121C4695684DB91C4A0C21013452
:10373800172C17DD002401FB042085689DB1164B6A
:103748009C6421F073F82A4621461548FFF796FE37
:103758000C235C43114B185DBDE8384021F07EB85E
:103768001C46E2E7E7D99C42E1D10E48BDE8384063
:10377800FFF72AB81846FFF75FFA1728044606D855
:10378800064A0C2303FB00239D68002DD7D1214650
:103798000548BDE8384071E600000020AC46040842
:1037A800959604086B9604087F9604080CB407B530
:1037B80010F0400009D069B92320FEF787FF05A95A
:1037C80004980191FFF743FE012003B05DF804EB74
:1037D80002B070470020F8E70CB4830607B500D59F
:1037E80051B905A904980191FFF731FE012003B0F2
:1037F8005DF804EB02B070470020F8E72DE9F04FC0
:1038080093B0934609900C461646002794E80F009B
:103818000AAD85E80F002378069394F901300793E1
:10382800A378089394F8048094F80CA09146BBF10F
:10383800000F42D096E80F0012AD05E90F000A9B71
:103848003179357B23F07F400E9B23F07F439842EC
:1038580031D188452FD191452DD1AAEB05035D4281
:103868005D41089B0293079B0193069B0093CDE95A
:10387800049ACDF80C803B46114A09982946FFF76F
:1038880095FF089B0293079B0193069B0093CDE944
:10389800049A3B46CDF80C80094A09982946013715
:1038A800FFF79AFF082F04F1100406F11006ADD1B6
:1038B80013B0BDE8F08F0025D3E75D46E1E700BF10
:1038C800AA9604082DE9F04F9BB093460D900D463B
:1038D80016460027AC46BCE80F000EAC0FC49CE8A7
:1038E80003002B780B936B780C9384E8030095F80E
:1038F8000490099295F80C800A9095F814A0BBF1F1
:10390800000F51D0B446BCE80F0014AC0FC4BDF88A
:1039180038E033699CE80300BDF850C0E64584E808
:10392800030011463079327B347D3BD1814539D152
:103938000998884236D1904534D10A9A9A4231D1B1
:10394800AAEB04035C425C410A9BCDF818A0CDE9C0
:103958000483099B154A0D98CDE902930C9B0193AA
:103968000B9B009321463B46FFF720FF0A9BCDF8AF
:1039780018A0CDE90483099B0C4A0D98CDE9029360
:103988000C9B01930B9B009321463B460137FFF7A5
:1039980023FF102F05F1180506F118069AD11BB060
:1039A800BDE8F08F0024CFE75C46DFE7C296040845
:1039B8002DE9F04FDFF8BCB08FB0824691460C4637
:1039C80016460027A388ADF82C3023780793637830
:1039D8000893B4F9028023792068099394F9053093
:1039E8000A900693B8F1000F3DD0B9F1000F3FD00F
:1039F8003068BDF828500C9080B2B388ADF83430E8
:103A0800854232787178B6F9023096F804C02DD123
:103A180043452BD1BDF82C50BDF83400281A454237
:103A2800454106980092CDE90113CDE903C03B4614
:103A38005A4629465046FFF7B9FE069B0493099B50
:103A4800CDE90283089B0193079B00935A463B46A6
:103A5800294650460137FFF7BFFE202F04F1060420
:103A680006F10606AED10FB0BDE8F08F0025D8E705
:103A78004D46E2E7E09604082DE9FF47DFF894A0F9
:103A8800814690460D4616460027B8F1000F3FD0F4
:103A9800B6F90030B5F90010B6F90220B6F90400FD
:103AA80096F906C0994231D1B5F9021091422DD14B
:103AB800B5F90410814229D195F90610A1EB0C043F
:103AC80061426141CDE90032CDE9020C3B465246E4
:103AD80048460C46FFF76AFE95F906300393B5F998
:103AE80004300293B5F90230019335F9083B00938D
:103AF80052463B46214648460137FFF76DFE102FD8
:103B080006F10806C1D104B0BDE8F0870021D9E765
:103B18004446E1E7F79604082DE9F04F804685B062
:103B28000E461546894692460027002409EB0403F1
:103B380093F8C0300393002D48D00AEB0403039A8E
:103B480093F8C030D11AD1F1000B4BEB010BCDE942
:103B58000043204A3B4659464046FFF727FE039B51
:103B68001C4ACDE9004359463B4640460134FFF71D
:103B780033FE062CDAD10137062F09F106090AF1BE
:103B8800060AD2D106F1E40A124E00241AF8019B63
:103B9800F5B12B19404693F8E430A9EB03025742DC
:103BA8005741CDE90043324606233946FFF7FEFD6B
:103BB800CDE9004906233246394640460134FFF72D
:103BC8000BFE0B2CE2D105B0BDE8F08FAB46C6E783
:103BD8002F46EDE70C9704082DE9FF47DFF86CA0A6
:103BE800814690460E4615460027B8F1000F2AD0A8
:103BF8002B8832889A4224D174886A88A21A54423F
:103C08005441EA780292AA782146CDE90032484622
:103C18003B465246FFF7CAFDF3780293B378019307
:103C280036F8043B009352463B4621464846013746
:103C3800FFF7D2FD102F05F10405D6D104B0BDE879
:103C4800F0870024DDE74446E6E700BF2097040834
:103C58002DE9F04FDFF868808FB007468A46164690
:103C680000240DF124095AF824300293494602A889
:103C780037F0E6F816B356F82430029D0393EB1A92
:103C88005D420DF1100B5D41594603A837F0D8F895
:103C9800CDF800B02346424629463846FFF786FD50
:103CA8002346CDF800904246294638460134FFF7AE
:103CB80093FD202CD7D10FB0BDE8F08F3546EFE744
:103CC800329704082DE9F347DFF868A081460F46CC
:103CD800904602260024B8F1000F28D038F8243086
:103CE80037F8241038F8062099421ED1BD5BA91A6E
:103CF8004D424D41CDE900322946234652464846B9
:103D0800FFF754FDBB5B019337F82430009352460C
:103D18002346294648460134FFF75EFD042C06F188
:103D28000406D8D102B0BDE8F0870025E2E7454691
:103D3800E8E700BF3C9704082DE9F04F2DED088B0C
:103D4800DFF80C9197B0804692460D46144600263F
:103D580095ED008AB5EE408AF1EE10FA70D0D5EDF7
:103D6800019A95ED029AD5ED038ABAF1000F3ED07B
:103D780094ED000A94ED01BAD4ED02AA94ED03AAD9
:103D8800B4EE408AF1EE10FA5FD1F4EE4B9AF1EE00
:103D980010FA5AD1B4EE6A9AF1EE10FA55D1F4EE4F
:103DA8004A8AF1EE10FA0CBF0127002712A8FEF785
:103DB80098FFB0EE4B0A83460EA8FEF792FFB0EECE
:103DC8006A0A05900AA8FEF78CFFB0EE4A0A04902A
:103DD80006A8FEF786FF059B049A03900292CDE998
:103DE80000B34A46334639464046FFF7DFFCB0EE9B
:103DF800480A12A8FEF775FFB0EE690A07460EA832
:103E0800FEF76FFFB0EE490A83460AA8FEF769FF7E
:103E1800B0EE680A049006A8FEF763FF049B0390BF
:103E2800CDE901B3009733464A46002140460136A2
:103E3800FFF7D2FC062E05F1100504F1100487D116
:103E480017B0BDEC088BBDE8F08F0027AEE700BFC8
:103E58004D9704082DE9F04F834687B092460C46EB
:103E6800164600274FF019094FF46178BAF1000F90
:103E78004DD0B078A5783378727896F803C096F864
:103E880004E07179854240D125789D423DD165781D
:103E980095423AD1E578654537D12579754534D1CC
:103EA80065798D4214BF0025012519FB028219FB93
:103EB8000383CDE9010303920091CDE904CE3B468B
:103EC800144A29465846FFF771FC23790593E3788D
:103ED800049363780F4A19FB03830393237819FB30
:103EE80003830293A37801936379009329463B46A1
:103EF80058460137FFF770FC0C2F04F1060406F151
:103F08000606B3D107B0BDE8F08F0025CDE75546CA
:103F1800DBE700BF619704082DE9F04F89B002F193
:103F28003C03374FDFF8E0A00793814690460C46E4
:103F3800164694F9040000230C2202FB03F1314DCC
:103F48004957814256D00133052BF6D1079B0C36D1
:103F5800B34204F10C04ECD109B0BDE8F08F96F936
:103F680004303268717996F806C096F808E096F839
:103F780007B098423CD12068904239D16079884294
:103F880036D1A079604533D1207A704530D1E579B2
:103F9800A5EB0B004542454157F82B0057F8211077
:103FA800049057F82E00039057F82C000290CDE9A2
:103FB8000021484652462946FFF7F8FBE27994F972
:103FC800043057F822200492227A57F822200392CC
:103FD800A27957F822200292627957F8222001929A
:103FE80022680092294652464846FFF7F5FBADE79E
:103FF8000025D1E7B8F1000FB1D14546DEE700BF93
:1040080080450408D4A900207F9704082DE9F04FC3
:10401800834685B092460D46164600274FF019098B
:104028004FF46178BAF1000F3ED032782C7871786D
:10403800B378F078944235D16C788C4232D1AC7830
:104048009C422FD1EC78A4EB000CDCF1000444EB8B
:104058000C0419FB008019FB0383CDE901130390BD
:1040680000923B46114A21465846FFF79FFBEB78E2
:104078000E4A19FB03830393AB7819FB038302935E
:104088006B78019315F8043B009321463B4658464C
:104098000137FFF7A1FB142F06F10406C2D105B0C2
:1040A800BDE8F08F0024D4E75446E0E79C97040865
:1040B80013B5074C00910346064A20684FF0FF31BC
:1040C800FFF7A9F8206802B0BDE81040FEF7F2BA81
:1040D80080320020F526000838B504460D4607480A
:1040E800FEF714FB29462046FFF7E2FF044B1B7836
:1040F80013B1044B01221A7038BD00BF2E94040876
:1041080020AA002021AA00200FB407B504A951F85D
:10411800040B0191FFF7E0FFFEF752FB03B05DF8D7
:1041280004EB04B0704738B50B4D2B7863B10B4CDA
:1041380023784BB10A48FFF7E7FF0A48FFF7E4FF87
:1041480000232B70237038BD0748FEF7DFFAFEF70F
:104158007DFC0020FEF7F0FA20AA002021AA00200A
:10416800AF970408E69704080498040838B50522B0
:10417800154904463EF03EF958B9144A13781BB95C
:1041880001211170124A13701248BDE83840FEF739
:104198001BBB0322104920463EF02CF980B90B4C7A
:1041A8000B4D227842B12B7833B10C48FFF7ACFFA6
:1041B800002323702B7038BD0948FEF705FBF7E78D
:1041C8000848BDE838409FE7E49A040820AA002080
:1041D80021AA00200B980408299C0408AF9704081A
:1041E800219804083598040813460A4601460148F0
:1041F8008AE700BF44980408F7B50746FBF7E0FFD5
:10420800044630B1002221490120FFF7FFFE03B028
:10421800F0BD3846FEF710FD1328054630DC860051
:10422800781C8DF80740FCF735FE184C074640B15E
:10423800FEF702FD29289EBF012304F825008DF80A
:1042480007303846FCF726FE074650B1FEF7F4FC67
:104258000D2806D8A31958709DF8073001338DF83A
:104268000730B11C0DF1070221443846FEF701FD65
:104278009DF80730042BCAD0002344F82530C6E740
:10428800132221460248FFF7AFFFC0E7D96B002091
:104298008E980408004837E761980408F7B5034684
:1042A800FBF78EFF044618B1FFF7F4FF03B0F0BD2B
:1042B80001AA1D491C4F18463BF022FE26462546FA
:1042C80038B9052D17D9014618480522FFF78CFF84
:1042D800ECE744B1012C0AD001AA39460020013488
:1042E8003BF00EFEECE7FEF7A7FC0546F4E7FEF709
:1042F800A3FC0646F0E7022C0DD1A6F57A73B3F5B8
:104308007A7F05D94FF4FA624FF47A710848DDE7ED
:10431800084B23F81560074B074833F91520294641
:10432800FFF7ACF8C2E700BFB4AA04088E980408E7
:10433800D7B90408300600106D9804082DE9F34138
:10434800044639F017FD04283DD1631E2546E11CBB
:1043580013F8012FA2F16100192898BF203A8B4267
:104368001A70F5D1DFF87080271D15F8016B4046EB
:1043780031463EF02AF820B1314628463EF025F86D
:1043880020B1FFF787FF02B0BDE8F081BD42ECD154
:1043980020462AF009FB0E480E4CFEF7B7F90E48E6
:1043A80000231A1902A952780A44195C02F8081C59
:1043B8000133042BF5D10023694608488DF80430F1
:1043C800FFF75CF8DFE70028E5D0FFF763FFE2E7D7
:1043D8007A98040808B70020DE580408B89804083A
:1043E8002DE9F3472F49DFF8BCA001AA3BF088FD6F
:1043F80000254FF0FF382F46A9462C46464630B9CF
:10440800052D10D8DFE805F03232320F3941042D7E
:1044180009D8DFE805F0030D12171C00FEF70CFCA5
:104428000646032819D9FFF735FF02B0BDE8F08723
:10443800FEF702FC80466A28F4E7FEF7FDFB044617
:104448001F28EFE7FEF7F8FB81461F28EAE7037805
:10445800482B09D0562BE6D1012701AA5146002046
:1044680001353BF04DFDCAE70027F6E743463246E3
:104478000D49012036F084FBD7E76B2303FB068345
:10448800094A32F81370C7F3C0276B2344EA49146A
:1044980003FB068624B2044B44EAC72423F81640DB
:1044A800C3E700BFB4AA040824AA0020F0B589B065
:1044B800044639F05FFCC2B22AB92B490120FFF744
:1044C8009DF909B0F0BD052228492046FEF7D8FD20
:1044D80028B94FF47F712448FEF73AFAF1E72046ED
:1044E8006A462349224E3BF00BFD002401AD78B10A
:1044F800072C02D1FFF7CEFEE3E7FEF79DFB6A46E5
:1045080045F82400314600203BF0FAFC0134EEE780
:10451800072CEFD1019A072AECD8DDF808C0BCF1C6
:10452800010FE7D8039E0F2EE4D8049D072DE1D88C
:10453800059C042CDED806980E4900F5742303F573
:1045480010738B42D6D80799FF29D3D8064F12018A
:10455800BB1807F802C098605E709D701C711973D3
:104568000548FFF7A3FFACE7206000208098040807
:10457800B4AA040880841E00CBAC04082DE9F041DD
:104588008AB0044639F0F6FBC2B232B9324901208A
:10459800FFF798F90AB0BDE8F08105222F492046B7
:1045A800FEF76EFD28B94FF47E712B48FEF7D0F95F
:1045B800F0E7204601AA2A49294E3BF0A1FC002435
:1045C80002AD78B1082C02D1FFF764FEE2E7FEF7EE
:1045D80033FB01AA45F82400314600203BF090FC4B
:1045E8000134EEE7082CEFD1DDF80880B8F10F0FA1
:1045F800EAD8DDF80CE0BEF1010FE5D8049F0D2FD5
:10460800E2D8059E042EDFD8069D164A05F57423C8
:1046180003F510739342D7D8079C042CD4D8089874
:1046280000F5742303F510739342CDD80999FF2937
:10463800CAD8DFF824C0182202FB08F20CEB0203E8
:104648000CF802E018615F701E719D601C7319758B
:104658000548FFF793FF9DE7A05E002080980408B7
:10466800B4AA040880841E00CBAC0408F0B589B055
:10467800044639F07FFBC2B22AB929490120FFF765
:1046880097F909B0F0BD052226492046FEF7F8FC47
:1046980020B915212248FEF75BF9F2E7204601AA66
:1046A8002149214E3BF02CFC4FF0FF3307930024A7
:1046B80002AD78B1062C02D1FFF7ECFDE1E7FEF779
:1046C800BBFA01AA45F82400314600203BF018FC4B
:1046D8000134EEE7042CEFDD029B1F2BECD8039F7F
:1046E8000F2FE9D8049D1D2DE6D8059C04F57A7294
:1046F800B2F5FA6FE0D80698FF28DDD807994A1C6A
:10470800102AD9D8064E06225A43B318B75418713E
:104718005D705C8059710548FFF7A8FFB1E700BFDD
:10472800166F002080980408B4AA0408CBAC0408CB
:1047380030B585B00546FBF743FD002858D02D4914
:104748000022012005B0BDE83040FFF795B92D2BB8
:1047580003D0A3F13002092A45D8042C03DD05B0A3
:10476800BDE8304096E52846FEF766FA04AB621CC1
:1047780003EB440424F80C0C15F8013F303B092BDB
:10478800FAD914462B78002BE1D1052CE7D1BDF9D5
:10479800040083B20F2BE2D8BDF90640A4F2EE2341
:1047A8009BB240F2DC529342D9D8BDF90810A1F26D
:1047B800EE239BB29342D2D8BDF90A209442CEDCB4
:1047C8009142CCDBBDF90C5005F17D039BB2FA2B6D
:1047D800C5D8084B23F8304003EBC00359809A80B2
:1047E8009D7105B030BD202BB9D101352246C8E7EF
:1047F8000446C7E7DC6F00207FB50346FBF7E0FC03
:10480800044630B100221F490120FFF785F904B0A2
:1048180070BD6A461C491C4E18463BF071FB01AD41
:10482800C0B1032C02D1FFF735FDF0E7FEF704FA1B
:104838006A4645F82400314600203BF061FB01340C
:10484800EEE70628EFD10A2AEDD80E48104480F882
:10485800E43012E0032CE6D1039B0F2BE3D8DDE90B
:104868000112C8B20528ECD8052ADCD8054C062563
:1048780005FB0040104480F8C0300448FEF7FEFDF8
:10488800C5E700BF7C270020B4AA04080C970408D9
:104898002DE9F0410646FBF793FC044630B10022AF
:1048A80023490120BDE8F041FFF796B93046FEF7ED
:1048B800C3F90F2805462EDC3046FCF7EBFADFF883
:1048C8007C801C4F064620353046FEF7B5F938F88F
:1048D8001430984225DC012C11D0022C13D027F873
:1048E800250030462C213DF070FD064678B1013692
:1048F80001230134ABB1032CE6D1BDE8F08107EB0D
:1049080085039870EDE707EB8503D870E9E7A21EE9
:1049180053425341EDE721460F220748BDE8F041D5
:1049280062E4002347F82530BDE8F041B2E400BF57
:10493800FC2700207C2700208E9804089426040871
:104948002DE9F04F87B00546FBF73AFC044638B12D
:10495800002262490120FFF77BF907B0BDE8F08F1C
:104968002846FEF769F91F28074600F3B180284654
:10497800FCF790FA594B009443F8274083462546A4
:104988002646A046A146A2460193554BE1B2E05CFB
:104998000DF10C0E0023DC461BF8012B1AB19042D6
:1049A80011D00A2B0BD10DF1180E734490424FF021
:1049B800000E03F80CEC08D0FFF76CFCCDE703F809
:1049C8000E200133E7E70246EDE701390CF1010B50
:1049D80003293FD8DFE801F05A2602730DF10B01D5
:1049E8004FF0010E11F8013FC3B300223D4810F803
:1049F80002C09C4503D00132072AF7D14A46542BFE
:104A080053D04F2B53D0422B53D04E2B53D0492B3E
:104A180053D0572B04D105230EFA03F348EA0308B1
:104A28009146DFE70DF10B02012112F8013FABB10E
:104A38004E2B30D0452B30D0532B30D0572B30D085
:104A4800552B30D0442BF0D1052301FA03F34AEA61
:104A5800030AEAE703A8FEF7EFF806460134052C37
:104A680093D1009B05F00F0545EA834545EA8A5A2C
:104A78004AEA0929360149EA0838019BF6B248EAA8
:104A8800060643F8276008F095F966E703A8FEF7DD
:104A9800D3F80546E2E70023D7E70123D5E7022349
:104AA800D3E70323D1E70423CFE70023B4E70123A7
:104AB800B2E70223B0E70323AEE70423ACE703A879
:104AC800FEF7BAF803460F28C8BF00230093C5E7CE
:104AD8001F2221460448FFF787FB3EE77C2700207A
:104AE8009A260408469304088E9804082DE9F74F7F
:104AF8000546FBF765FB804630B10021012003B075
:104B0800BDE8F04F36F096B86FF000425849284695
:104B1800FEF7B6FA20B903B0BDE8F04F32F00ABB91
:104B28006FF0004253492846FEF7AAFA20B903B0AD
:104B3800BDE8F04F34F042B96FF000424E492846C4
:104B4800FEF79EFA30BB4D4B83F8FC081A4693F8E3
:104B58005C13012901D004290AD193F87213A529FD
:104B680000F101000CD1012382F8FD0882F8FC381D
:104B780092F8FC384BB103B0BDE8F04F32F0EEBE0E
:104B88003C2803F11803E2D1F2E703B0BDE8F04F87
:104B9800FFF780BB2846FEF74FF883B23B2B04464D
:104BA8005ED82846FCF776F98046002856D0FEF7EE
:104BB80043F80125C7B24046FCF76CF9804620B19E
:104BC800FEF73AF801358346EDB24046FCF762F944
:104BD800804620B1FEF730F801358246EDB24046F6
:104BE800FCF758F9804620B1FEF726F80135019008
:104BF800EDB24046FCF74EF9804628B1FEF71CF8A6
:104C080001350FFA80F9EDB24046FCF743F920B1BF
:104C1800FEF712F80135C6B2EDB2032DB5D9012F52
:104C280001D9042FB1D1B9F1000FAEDB0EB1A52E19
:104C3800ABD1124B182224B202FB0434019B84F836
:104C48005C73C4F860B3C4F864A3C4F86833A4F808
:104C58006C9384F8726303B0BDE8F08F0546AAE749
:104C680007483B22414603B0BDE8F04FFFF7BCBA06
:104C78008098040886980408089C0408BCAD0020A5
:104C88008B980408F8B50546FBF79AFA064630B142
:104C9800002227490120BDE8F840FFF713B86FF05C
:104CA800004224492846FEF7EBF968B9204B4FF437
:104CB8007A714FF4FA6219805A809980DA801981E2
:104CC8005A819981DA81F8BD2846FDF7B5FF032896
:104CD800044626D82846FCF7DDF8064670B1FDF7ED
:104CE800ABFF012507463046FCF7D4F810B1FDF7B5
:104CF800A3FF2DB9BDE8F840FFF7CCBA0546F2E7A7
:104D0800A7F2EE2240F2DC539A42F3D8A0F2EE2248
:104D18009A42EFD8064B23F8247003EB840358809B
:104D2800D1E7314603220448BDE8F840FFF75CBAF2
:104D38004A6D0020809804089498040870B50446C9
:104D4800FBF73EFA064630B100222E490120BDE8A5
:104D58007040FEF7F1BF05222B492046FEF790F977
:104D680040B9284B00221A601A611A621A631A6441
:104D78001A6570BD2046FDF75FFF052805463AD83D
:104D88002046FCF787F8064648B3FBF7CDFB1D4BDA
:104D980003EB051383ED000A01243046FCF77AF88B
:104DA800064638B1FBF7C0FB164B03EB051383ED42
:104DB800010A01343046FCF76DF8064638B1FBF7B6
:104DC800B3FB104B03EB051383ED020A01343046A5
:104DD800FCF760F828B9BDE87040FFF75BBA0446F5
:104DE800DBE7FBF7A1FB074B032C03EB051585ED70
:104DF800030AA9D0EFE7314605220448BDE8704010
:104E0800FFF7F2B9AC6E0020809804088E98040869
:104E18002DE9F7438146FBF7D3F9064638B100225E
:104E280037490120FFF716F803B0BDE8F08348467C
:104E3800FDF702FF0B2804465BDC0625454309F114
:104E480001008DF80760FCF725F8DFF8B48081468B
:104E580005EB0807464638B1FDF7EEFE03289EBF6E
:104E6800012378718DF807304846FCF713F881461E
:104E780060B1FDF7E1FE0D2808D8062303FB0463A3
:104E880098709DF8073001338DF807300DF107024F
:104E980039464846FDF7EDFEFBF7FCFF814660B159
:104EA800FDF7CAFE312808D89DF80730062202FB14
:104EB80004620133D0708DF807304846FBF7EAFFEB
:104EC80060B1FDF7B9FE0D2808D89DF80730062215
:104ED80002FB0464013320718DF807309DF8073018
:104EE800062BA1D0002345F80830BB80FFF7D2F984
:104EF8009AE70B2231460348FFF776F994E700BF9B
:104F0800585E00208E9804082DE9FF410446FBF7FF
:104F180057F938B146490022012004B0BDE8F041F4
:104F2800FEF7FABF2046FDF787FE054640B21FF0A0
:104F3800DBF9064630B93F48294604B0BDE8F041E0
:104F4800FFF7E2B80068716801AB03C3B068186086
:104F5800601CFBF79FFF044600284DD003782B2BDD
:104F680005D02D2B3DD0FDF767FE019009E00134F7
:104F78002046FDF761FE012303FA00F0019B03437D
:104F880001930225DFF8B08000272046FBF782FF57
:104F98000446F8B1FDF750FE002258F82210884266
:104FA800D3B203D00132112AF7D1002358F82320B5
:104FB80090420FD1022F27D0032F2AD0012F1DD0C6
:104FC8005A1E0F2A03D88DF809300135EDB2013782
:104FD800042FDAD1012D22D804B0BDE8F041FFF743
:104FE80059B901342046FDF727FE012303FA00F0E2
:104FF800019B23EA0003C3E70125C3E71A1F042A1C
:10500800E5D88DF80A30E0E7082BE0D88DF80C30A9
:10501800DBE75A1F052ADAD88DF80B30D5E701AB44
:1050280003CB306018687160B06004B0BDE8F081EF
:1050380094A900209C980408804504080FB407B57B
:1050480004A951F8040B0191FFF732F803B05DF899
:1050580004EB04B07047F8B50B4C0C4E0C4F04F53C
:1050680020752068FDF752FB616811B13046FFF7E3
:10507800E5FFA16811B13846FFF7E0FF1034FDF7EE
:105088009FFBAC42EDD1F8BD8C3C0408AF980408F6
:10509800B59804082DE9F74F804638F06BFE474D68
:1050A800DFF840912F680446F0B94548454EFFF7B0
:1050B800C5FF012519F80430013B05FA03F33B420B
:1050C80009EB040203D091683046FFF7B7FF0C34B0
:1050D800B4F5847FEED117B93B48FDF717FB03B051
:1050E800BDE8F04FFDF76CBB024638494046FDF776
:1050F800C7FF064670B93648324DFDF707FB09EB86
:105108000603284699680C36FFF798FFB6F5907F96
:10511800F5D1E4E798F800302D2B03BF08F101081A
:1051280004F1FF344FF0010A4FF0000A00260C2367
:1051380003FB069B0193DBF80830009319462246CF
:105148004046FDF79DFF019B00282FD1BAF1000FC3
:1051580019D0162E0BD11F4B2B601F48FDF7D6FA1E
:1051680000991E4803B0BDE8F04FFEF787B9172E27
:1051780001D16B68F0E79BF800305A1E0123934079
:105188001F432F60E9E7162E03D1C5F800A0144885
:10519800E4E7172E17BF9BF800306F6003F1FF326A
:1051A80001231EBF93409F432F60F0E70136182E5E
:1051B800BED103B0BDE8F04F35F0CDBCA45B0020F4
:1051C800BB980408CC980408C598040888B2040859
:1051D800D1980408FFFF3F00DC980408CD98040824
:1051E800E5980408AC4604082DE9F843054638F06C
:1051F800C1FD0446D0B9304B30481D68304EDFF849
:10520800D080FDF783FA012756F8241051B10B78A6
:1052180033B107FA04F32B4202D04046FFF70EFFE2
:105228000134F1E7BDE8F843FDF7CABA024625495B
:105238002846FDF725FF78B92348244C244DFDF76F
:1052480065FA54F8041F0029ECD00B78002BF8D02D
:105258002846FFF7F3FEF4E72B78DFF864902D2B50
:1052680003BF013504F1FF344FF001084FF0000887
:10527800002659F826701FB9BDE8F84335F06BBC15
:10528800224639462846FDF7FBFE98B90120B04072
:10529800B8F1000F0AD0FDF766FB0E48FDF736FAA5
:1052A80039460D48BDE8F843FEF7E8B8FDF764FB5A
:1052B8000A48F3E70136DCE70C710020ED98040892
:1052C800A026040888B20408F79804089C26040855
:1052D800DEB60408DC980408CD980408E5980408AC
:1052E80030B5274885B0FDF711FA1BF0C9F828B981
:1052F800244805B0BDE83040FDF766BA1BF0B8F8A1
:1053080008B92148F5E71BF0ABF80268037D8179FD
:105318000446407C0290207C0190608A00905208EC
:105328001A48FFF78BFEE51D0C3415F8010BFDF745
:10533800CDF9AC42F9D1164C1648FDF7E7F9627879
:10534800032A13D8DFE802F0080806021248FDF71E
:10535800DDF90BE01148FAE71148FDF7D7F941F2FA
:10536800B413E35C022B06D0032B06D005B0BDE8CE
:105378003040FDF725BA0B48E9E70B48E7E700BFDF
:10538800039904080D9904081B9904082A9904082C
:105398008CC8002058990408689904086E99040874
:1053A8007B990408819904089A990408F8B58479C6
:1053B80014F0C003064602D0402B17D0F8BD20F0E9
:1053C800D3FD04F00F04062C054605D10146BDE8BF
:1053D800F8401448FEF752B8304620F0F1FD2A464E
:1053E8000146BDE8F8401048FEF748B820F0A0FD97
:1053F80005460E480E4E0F4FFDF788F900242B790D
:105408009C4203D3BDE8F840FDF7DAB914B1304641
:10541800FDF77CF92B68384653F82410FFF70EFE89
:105428000134ECE7AC990408BC990408D399040842
:10543800E3990408CD98040870B58379164603F0FB
:105448000F028AB00546062A4CD8DFE802F004139A
:1054580016181B1D49000C7813F0C00344D0402BCC
:105468003CD12146284620F073FD002856D0FFF78E
:10547800E5FD33E091F90040EEE70C88ECE7B1F97F
:105488000040E9E70C68E7E791ED000A6846FDF798
:1054980028FC01462648FFF7D1FDFEB1AB7913F091
:1054A800C00F1BD1284620F08BFD07EE900A6846F6
:1054B800B8EEE70AFDF715FC01461E48FFF7BEFDEA
:1054C800284620F051FD07EE900A6846B8EE670AB4
:1054D800FDF707FC01461748FFF7B0FD0AB070BD9D
:1054E8001348F9E70024B7E7042A0CBF1248134809
:1054F8002146FFF7A3FD002EF0D0AB7913F0C00FC3
:10550800ECD1284620F05CFD0446284620F02CFD0E
:10551800214602460A48FFF791FDDFE7694628461B
:1055280020F038FE6A4621460648FEF7EDFDD5E72D
:10553800B8980408CD980408D09904085CC20408F7
:10554800B8D70408E599040838B50D46044620F094
:1055580093FD2A4601462046BDE838406CE72DE910
:10556800F0478AB0064601303378202BFAD0002461
:10557800DFF85890DFF858A025464FF00B0808FBD5
:1055880004976946384620F005FE314668463CF0E7
:105598008FFF78B169465046FFF750FD0021384625
:1055A800FFF7D2FFFDF70CF93846FFF7FFFEFDF7CE
:1055B80007F90135013440F2A7139C42DFD10DB938
:1055C80035F0C9FA0AB0BDE8F08700BF5F2A0408C1
:1055D800429A04082DE9F04F2DED028B07468DB055
:1055E8003B4613F8014B202C2BD0384638F0C2FB31
:1055F800054618B1012826D12A2C24D18848DFF87D
:105608002882884FFDF7E0F800244FF00B0909FBCA
:10561800048602A9304620F0BDFD02A93846FFF7EE
:105628000DFD29463046FFF78FFF0134FDF7C8F816
:1056380040F2A7139C42EAD10DB0BDEC028BBDE845
:10564800F08F1F46CCE73D2138463CF0BEFE0028CF
:1056580000F0E280034613F8012C202A03F1FF3101
:1056680031D0A3EB0709441C2378202B04F1010255
:105678002BD06D4B4FF000084FF00B0B0BFB08368F
:1056880002A93046019320F085FD02A838F072FB8C
:1056980002A9024682463846FDF7F2FC019B054600
:1056A800A8B95FFA89F2924511D1B37903F00F07CF
:1056B800062F15D1204638F05DFB214602463046BC
:1056C80020F0E7FCB8E70B46C5E71446CCE708F13D
:1056D800010840F2A7129045D0D135F03CFAABE76B
:1056E80013F0C0030AD0402B5BD05048FDF752F8A6
:1056F8003046FFF75BFEFDF763F89DE72378002B44
:10570800F3D04B4920463CF0C1FE0546204638F010
:1057180031FB8542E9D12046FAF706FF3046B0EE64
:10572800408A20F04DFC07EE900AF8EEE77AF4EE96
:10573800C87AF1EE10FAD8D8304620F015FC07EEFA
:10574800900AF8EE677AF4EEC87AF1EE10FACCDB3C
:10575800052F16D0042F1ED1214614F8013B202B0B
:10576800FAD0092BF8D0013900230A2011F8012FAB
:10577800303AD2B2092A02D800FB0323F6E708EE32
:10578800103A304620F078FC052F32D8DFE807F0D1
:105798002E2E3A3A3E412046FDF74EFA08EE100A00
:1057A800EFE7304620F0C4FB9FED228A90F804A072
:1057B80081462B46A846AA4500D91BB1B8F1000F6F
:1057C80093D0DEE7D9F800306FF0004253F8250097
:1057D8002146FDF755FC002808BF08EE105A0ABFFD
:1057E800012300234FF001080135E4E718EE103AD1
:1057F800037002A91048FFF721FC00213046FFF78B
:10580800A3FE19E718EE103A0380F2E780ED008A4C
:10581800EFE780ED008AECE73846FFF7A0FE0BE7DC
:10582800029A0408429A04085F2A04082D9A040878
:10583800149A040800000000229A04082DE9F04F89
:1058480081468DB088460026464BF418464B1868AA
:10585800FCF730FF94F806B00BF030034B4549D104
:10586800204620F0E7FBFDF761F80546204620F0CA
:10587800B7FBAA68019217188246204620F0FCFB65
:105888000BF00F010546019A062968D8DFE801F0F8
:10589800043A3F43484C5A0012F80A200378D31AB6
:1058A800D3F1000A4AEB030A18F0200F02D0BAF12C
:1058B800000F1FD102A9204620F06CFC18F0400F01
:1058C8000DD0BAF1000F0AD102A92848FFF7B6FB9C
:1058D800524629462046FFF7AFFDFCF771FF02A9A3
:1058E8002348FFF7ABFB002239462046FFF7A4FD0B
:1058F800FCF766FF0B3641F22D239E42A4D10DB072
:10590800BDE8F08F12F90A2090F90030C7E732F8A5
:105918000A200388C3E732F90A20B0F90030BEE74D
:1059280052F80A200368BAE797ED007AD0ED007ABA
:10593800B4EE677AF1EE10FA0CBF4FF0010A4FF09F
:10594800000AB1E7204620F00FFB2946421C3846E2
:105958003CF075FDB0FA80FA4FEA5A1AA4E74FF006
:10596800000AA1E75F2A0408803200203D9A040853
:105978003E9A0408022810B50C460FD8FBF77CFDA8
:105988000748FCF745FF074B074859780131FDF7F1
:1059980075FD21463020BDE810404FE710BD00BF1F
:1059A800489A0408F02D0020589A0408022810B5D7
:1059B8000C4613D8FBF778FD0948FCF729FF094B7B
:1059C800094819780131FDF759FD21461020FFF7E4
:1059D80035FF21462020BDE810402FE710BD00BF4D
:1059E800A7AF0408F02D0020609A04080EB410B583
:1059F80085B004AC07AA44F8040D52F8043B02929F
:105A080000924FF0FF31064A2046FDF704FC039B45
:105A180000221A7005B0BDE8104003B0704700BFFF
:105A28007D0600082DE9F04F814691B0904601F1BE
:105A3800150402F115050026A4F1150321460422D8
:105A480009A8A4F10D0B06933CF00BFDDBE900015E
:105A580000294FF0000308BF08288DF828300BAF45
:105A680062D2024636493846FFF7C0FFB8F1000F48
:105A780064D0A5F11503079315F815AC14F8153C77
:105A8800534558D1A5F10D03DBE90001D3E9002303
:105A9800994208BF90424ED114F8012C15F8013CE8
:105AA8009A4248D10422294620463CF04FFC00285F
:105AB80041D1069B079A1B6912699B1AD3F1000B07
:105AC8004BEB030B1F4B05930023049335F9033C61
